{
  "contractName": "MyContract",
  "abi": [
    {
      "constant": false,
      "inputs": [
        {
          "name": "v",
          "type": "uint256"
        }
      ],
      "name": "set_myval",
      "outputs": [],
      "payable": false,
      "stateMutability": "nonpayable",
      "type": "function"
    },
    {
      "constant": true,
      "inputs": [],
      "name": "get_myval",
      "outputs": [
        {
          "name": "",
          "type": "uint256"
        }
      ],
      "payable": false,
      "stateMutability": "view",
      "type": "function"
    }
  ],
  "bytecode": "0x60806040526000805534801561001457600080fd5b5060bd806100236000396000f3fe6080604052348015600f57600080fd5b506004361060325760003560e01c8063267844711460375780639a8d0bc8146062575b600080fd5b606060048036036020811015604b57600080fd5b8101908080359060200190929190505050607e565b005b60686088565b6040518082815260200191505060405180910390f35b8060008190555050565b6000805490509056fea165627a7a72305820e05c84b2e3b181769a9b7c112bf752f603639c83b9c0a2ca25c24ccb22d94fd90029",
  "source": "pragma solidity ^0.5.6;\n\ncontract MyContract {\n    uint256 myval = 0;\n\n    function set_myval(uint256 v) public {\n        myval = v;\n    }\n\n    function get_myval() public view returns (uint256) {\n        return myval;\n    }\n}\n",
  "sourcePath": "/Users/jhka/Documents/fdongfdong/klaytn_swap_project/Klaytn-React-Bapp.io/contracts/MyContract.sol",
  "compiler": {
    "name": "solc",
    "version": "0.5.6+commit.b259423e.Emscripten.clang"
  },
  "schemaVersion": "3.3.3",
  "updatedAt": "2022-07-23T22:56:53.843Z",
  "networkType": "ethereum",
  "devdoc": {
    "methods": {}
  },
  "userdoc": {
    "methods": {}
  }
}